:020000040800F2
:1000000000500020F544000891440008994400087D
:10001000A1440008A9440008B14400080000000001
:10002000000000000000000000000000B9440008CB
:10003000C544000800000000D1440008DD44000869
:100040003D4500083D4500083D4500083D45000888
:100050003D4500083D4500083D4500083D45000878
:100060003D4500083D4500083D4500083D45000868
:100070003D4500083D4500083D4500083D45000858
:100080003D4500083D4500083D4500083D45000848
:100090003D4500083D4500083D4500083D45000838
:1000A0003D4500083D4500083D4500083D45000828
:1000B0003D4500083D4500083D4500083D45000818
:1000C0003D4500083D4500083D4500083D45000808
:1000D0003D4500083D4500083D4500083D450008F8
:1000E0003D4500083D4500083D4500080000000072
:1000F0000000000000000000000000000000000000
:0C01000000000000000000005FF808F1A3
:10010C0010B5054C237833B9044B13B10448AFF345
:10011C0000800123237010BD60000020000000004F
:10012C00386F000808B5034B1BB103490348AFF304
:10013C00008008BD0000000064000020386F00083B
:10014C004FF0FF0C1CEAD0521EBF1CEAD15392EAAE
:10015C000C0F93EA0C0F6FD01A4480EA010C40028A
:10016C0018BF5FEA41211ED04FF0006343EA5010E4
:10017C0043EA5111A0FB01310CF00040B1F5000F26
:10018C003EBF490041EAD3715B0040EA010062F1D5
:10019C007F02FD2A1DD8B3F1004F40EBC25008BFBF
:1001AC0020F00100704790F0000F0CF0004C08BFDD
:1001BC0049024CEA502040EA51207F3AC2BFD2F1AA
:1001CC00FF0340EAC250704740F400004FF00003B8
:1001DC00013A5DDC12F1190FDCBF00F000407047F2
:1001EC00C2F10002410021FA02F1C2F1200200FA30
:1001FC0002FC5FEA310040F1000053EA4C0308BFF7
:10020C0020EADC70704792F0000F00F0004C02BF47
:10021C00400010F4000F013AF9D040EA0C0093F0C2
:10022C00000F01F0004C02BF490011F4000F013B1C
:10023C00F9D041EA0C018FE70CEAD15392EA0C0F8A
:10024C0018BF93EA0C0F0AD030F0004C18BF31F0F5
:10025C00004CD8D180EA010000F00040704790F0CB
:10026C00000F17BF90F0004F084691F0000F91F06F
:10027C00004F14D092EA0C0F01D142020FD193EA35
:10028C000C0F03D14B0218BF084608D180EA0100BD
:10029C0000F0004040F0FE4040F40000704740F099
:1002AC00FE4040F44000704781F0004102E000BF86
:1002BC0083F0004330B54FEA41044FEA430594EA1A
:1002CC00050F08BF90EA020F1FBF54EA000C55EA55
:1002DC00020C7FEA645C7FEA655C00F0E2804FEA26
:1002EC005454D4EB5555B8BF6D420CDD2C4480EA08
:1002FC00020281EA030382EA000083EA010180EA38
:10030C00020281EA0303362D88BF30BD11F0004F85
:10031C004FEA01314FF4801C4CEA113102D04042BB
:10032C0061EB410113F0004F4FEA03334CEA1333F6
:10033C0002D0524263EB430394EA050F00F0A7800E
:10034C00A4F10104D5F1200E0DDB02FA0EFC22FA09
:10035C0005F2801841F1000103FA0EF2801843FAFD
:10036C0005F359410EE0A5F120050EF1200E012AEE
:10037C0003FA0EFC28BF4CF0020C43FA05F3C0182C
:10038C0051EBE37101F0004507D54FF0000EDCF1A5
:10039C00000C7EEB00006EEB0101B1F5801F1BD34E
:1003AC00B1F5001F0CD349085FEA30004FEA3C0C52
:1003BC0004F101044FEA445212F5800F80F09A8048
:1003CC00BCF1004F08BF5FEA500C50F1000041EB4C
:1003DC00045141EA050130BD5FEA4C0C404141EB50
:1003EC000101013C28BFB1F5801FE9D291F0000F4B
:1003FC0004BF01460020B1FA81F308BF2033A3F1FA
:10040C000B03B3F120020CDA0C3208DD02F1140CF0
:10041C00C2F10C0201FA0CF021FA02F10CE002F12B
:10042C001402D8BFC2F1200C01FA02F120FA0CFC24
:10043C00DCBF41EA0C019040E41AA2BF01EB04516D
:10044C00294330BD6FEA04041F3C1CDA0C340EDC6B
:10045C0004F11404C4F1200220FA04F001FA02F3AE
:10046C0040EA030021FA04F345EA030130BDC4F16C
:10047C000C04C4F1200220FA02F001FA04F340EA61
:10048C000300294630BD21FA04F0294630BD94F012
:10049C00000F83F4801306BF81F480110134013DF9
:1004AC004EE77FEA645C18BF7FEA655C29D094EA6A
:1004BC00050F08BF90EA020F05D054EA000C04BFE8
:1004CC001946104630BD91EA030F1EBF00210020D3
:1004DC0030BD5FEA545C05D14000494128BF41F072
:1004EC00004130BD14F580043CBF01F5801130BDD6
:1004FC0001F0004545F0FE4141F470014FF0000061
:10050C0030BD7FEA645C1ABF194610467FEA655C11
:10051C001CBF0B46024650EA013406BF52EA0335B3
:10052C0091EA030F41F4002130BD00BF90F0000FA1
:10053C0004BF0021704730B54FF4806404F13204DD
:10054C004FF000054FF0000150E700BF90F0000F96
:10055C0004BF0021704730B54FF4806404F13204BD
:10056C0010F0004548BF40424FF000013EE700BF8D
:10057C0042004FEAE2014FEA31014FEA02701FBF1D
:10058C0012F07F4393F07F4F81F06051704732F04F
:10059C007F4208BF704793F07F4F04BF41F40021A6
:1005AC00704730B54FF4607401F0004521F0004104
:1005BC001CE700BF50EA010208BF704730B54FF08E
:1005CC0000050AE050EA010208BF704730B511F08F
:1005DC00004502D5404261EB41014FF4806404F1C7
:1005EC0032045FEA915C3FF4D8AE4FF003025FEA4D
:1005FC00DC0C18BF03325FEADC0C18BF033202EBD1
:10060C00DC02C2F1200300FA03FC20FA02F001FA2A
:10061C0003FE40EA0E0021FA02F11444BDE600BFCD
:10062C0070B54FF0FF0C4CF4E06C1CEA11541DBF7C
:10063C001CEA135594EA0C0F95EA0C0F00F0DEF847
:10064C002C4481EA030621EA4C5123EA4C5350EA2C
:10065C00013518BF52EA033541F4801143F480137D
:10066C0038D0A0FB02CE4FF00005E1FB02E506F00E
:10067C000042E0FB03E54FF00006E1FB03569CF063
:10068C00000F18BF4EF0010EA4F1FF04B6F5007F69
:10069C0064F5407404D25FEA4E0E6D4146EB0606DB
:1006AC0042EAC62141EA55514FEAC52040EA5E5064
:1006BC004FEACE2EB4F1FD0C88BFBCF5E06F1ED80E
:1006CC00BEF1004F08BF5FEA500E50F1000041EB45
:1006DC00045170BD06F0004646EA010140EA0200F2
:1006EC0081EA0301B4EB5C04C2BFD4EB0C0541EA14
:1006FC00045170BD41F480114FF0000E013C00F329
:10070C00AB8014F1360FDEBF002001F0004170BD4C
:10071C00C4F10004203C35DA0C341BDC04F1140465
:10072C00C4F1200500FA05F320FA04F001FA05F2F1
:10073C0040EA020001F0004221F0004110EBD370BE
:10074C0021FA04F642EB06015EEA430E08BF20EAEA
:10075C00D37070BDC4F10C04C4F1200500FA04F38D
:10076C0020FA05F001FA04F240EA020001F000411F
:10077C0010EBD37041F100015EEA430E08BF20EA92
:10078C00D37070BDC4F1200500FA05F24EEA020EDA
:10079C0020FA04F301FA05F243EA020321FA04F009
:1007AC0001F0004121FA04F220EA020000EBD370C0
:1007BC005EEA430E08BF20EAD37070BD94F0000FC0
:1007CC000FD101F00046400041EB010111F4801FF4
:1007DC0008BF013CF7D041EA060195F0000F18BFA5
:1007EC00704703F00046520043EB030313F4801FE1
:1007FC0008BF013DF7D043EA0603704794EA0C0F9B
:10080C000CEA135518BF95EA0C0F0CD050EA4106B0
:10081C0018BF52EA4306D1D181EA030101F000412D
:10082C004FF0000070BD50EA410606BF1046194655
:10083C0052EA430619D094EA0C0F02D150EA013661
:10084C0013D195EA0C0F05D152EA03361CBF1046A2
:10085C0019460AD181EA030101F0004141F0FE4141
:10086C0041F470014FF0000070BD41F0FE4141F4C5
:10087C00780170BD70B54FF0FF0C4CF4E06C1CEAC5
:10088C0011541DBF1CEA135594EA0C0F95EA0C0F7A
:10089C0000F0A7F8A4EB050481EA030E52EA033535
:1008AC004FEA013100F088804FEA03334FF0805556
:1008BC0045EA131343EA12634FEA022245EA111583
:1008CC0045EA10654FEA00260EF000419D4208BF34
:1008DC00964244F1FD0404F5407402D25B084FEAE1
:1008EC003202B61A65EB03055B084FEA32024FF48D
:1008FC0080104FF4002CB6EB020E75EB030E22BFEA
:10090C00B61A754640EA0C005B084FEA3202B6EBA9
:10091C00020E75EB030E22BFB61A754640EA5C0058
:10092C005B084FEA3202B6EB020E75EB030E22BFE8
:10093C00B61A754640EA9C005B084FEA3202B6EBE9
:10094C00020E75EB030E22BFB61A754640EADC00A8
:10095C0055EA060E18D04FEA051545EA16754FEA0A
:10096C0006164FEAC30343EA52734FEAC2025FEA28
:10097C001C1CC0D111F4801F0BD141EA00014FF0B7
:10098C0000004FF0004CB6E711F4801F04BF014388
:10099C000020B4F1FD0C88BFBCF5E06F3FF6AFAEA4
:1009AC00B5EB030C04BFB6EB020C5FEA500C50F134
:1009BC00000041EB045170BD0EF0004E4EEA1131B7
:1009CC0014EB5C04C2BFD4EB0C0541EA045170BDBE
:1009DC0041F480114FF0000E013C90E645EA060E02
:1009EC008DE60CEA135594EA0C0F08BF95EA0C0F30
:1009FC003FF43BAF94EA0C0F0AD150EA01347FF478
:100A0C0034AF95EA0C0F7FF425AF104619462CE74E
:100A1C0095EA0C0F06D152EA03353FF4FDAE1046B1
:100A2C00194622E750EA410618BF52EA43067FF402
:100A3C00C5AE50EA41047FF40DAF52EA43057FF492
:100A4C00EBAE12E74A0011D212F5001211D20DD5FD
:100A5C006FF47873B3EB62520ED44FEAC12343F0B8
:100A6C00004343EA505323FA02F070474FF0000062
:100A7C00704750EA013002D14FF0FF3070474FF011
:100A8C000000704780F0004002E000BF81F00041A0
:100A9C0042001FBF5FEA410392EA030F7FEA226C18
:100AAC007FEA236C6AD04FEA1262D2EB1363C1BFA8
:100ABC00D218414048404140B8BF5B42192B88BF17
:100ACC00704710F0004F40F4000020F07F4018BF3A
:100ADC00404211F0004F41F4000121F07F4118BF5A
:100AEC00494292EA030F3FD0A2F1010241FA03FC02
:100AFC0010EB0C00C3F1200301FA03F100F00043EA
:100B0C0002D5494260EB4000B0F5000F13D3B0F1B1
:100B1C00807F06D340084FEA310102F10102FE2A20
:100B2C0051D2B1F1004F40EBC25008BF20F0010090
:100B3C0040EA03007047490040EB0000013A28BF2F
:100B4C00B0F5000FEDD2B0FA80FCACF1080CB2EBB2
:100B5C000C0200FA0CF0AABF00EBC2505242184330
:100B6C00BCBFD0401843704792F0000F81F40001D5
:100B7C0006BF80F400000132013BB5E74FEA4103A8
:100B8C007FEA226C18BF7FEA236C21D092EA030F14
:100B9C0004D092F0000F08BF0846704790EA010F8E
:100BAC001CBF0020704712F07F4F04D1400028BFBB
:100BBC0040F00040704712F100723CBF00F500009D
:100BCC00704700F0004343F0FE4040F400007047D3
:100BDC007FEA226216BF08467FEA2363014642027F
:100BEC0006BF5FEA412390EA010F40F48000704792
:100BFC004FF0000304E000BF10F0004348BF404238
:100C0C005FEA000C08BF704743F0964301464FF073
:100C1C0000001CE050EA010208BF70474FF00003CF
:100C2C000AE000BF50EA010208BF704711F0004310
:100C3C0002D5404261EB41015FEA010C02BF8446E0
:100C4C000146002043F0B64308BFA3F18053A3F53F
:100C5C000003BCFA8CF2083AA3EBC25310DB01FA86
:100C6C0002FC634400FA02FCC2F12002BCF1004F0A
:100C7C0020FA02F243EB020008BF20F0010070479B
:100C8C0002F1200201FA02FCC2F1200250EA4C00EF
:100C9C0021FA02F243EB020008BF20EADC70704735
:100CAC0080B400AF144BDB68134A23F08073D3601D
:100CBC00114BDB68104A43F08073D3600F4B1B68F9
:100CCC000E4A23F0010313600C4B1B680B4A43F0D4
:100CDC0001031360094B00225A6000BF00BF00BF24
:100CEC00064B5B68002B01D0002300E00123184663
:100CFC00BD4680BC704700BFF0ED00E0001000E086
:100D0C0080B586B002AF03460A46FB711346BB7131
:100D1C00FB79134A5B0013445A78BB791343DBB25B
:100D2C00FB73FA790F4913465B0013449B000B4489
:100D3C0004331868FA790B4913465B0013449B0083
:100D4C000B4408331B785B0099B207F10F02642344
:100D5C000093012304F050F800BF1037BD4680BD4E
:100D6C007C0000203470000880B586B000AF0346CC
:100D7C000A46FB711346BB71BB7943F00403DAB22C
:100D8C00FB7911461846FFF7BBFF224B9B687B6132
:100D9C00214B1B68214AA2FB03239B0C5A001E4BC0
:100DAC001B681E49A1FB03139B0C5B08D31A3B6108
:100DBC00184B9B687A69D31A3A699A42F8D8BB796E
:100DCC0023F00403DAB2FB7911461846FFF798FFBB
:100DDC00104B9B68FB60104B1B68104AA2FB032353
:100DEC009B0C322203FB02F20B4B1B680B49A1FB41
:100DFC0003139B0C5B08D31ABB60064B9B68FA6809
:100E0C00D31ABA689A42F8D800BF00BF1837BD464B
:100E1C0080BD00BF10E000E05400002083DE1B43C7
:100E2C0080B582B000AF03460A46FB711346BB7116
:100E3C00BA79FB7911461846FFF762FFBA79FB794C
:100E4C0011461846FFF790FF00BF0837BD4680BD1E
:100E5C0080B584B000AF0346FB710B46BB711346E3
:100E6C007B71BB7923F00F03FB73BB791B01BB7345
:100E7C00FA7B7B791343DAB2FB7911461846FFF7FC
:100E8C00CFFFBA7B7B791343DAB2FB791146184654
:100E9C00FFF7C6FF00BF1037BD4680BD80B582B0DE
:100EAC0000AF03460A46FB711346BB71B979FB7957
:100EBC0000221846FFF7CCFF00BF0837BD4680BDA7
:100ECC0080B582B000AF03460A46FB711346BB7176
:100EDC00B979FB7901221846FFF7BAFF00BF083732
:100EEC00BD4680BD80B58AB000AF0346FB7100BF24
:100EFC0003F078FB0346312BFAD9FB7930211846E5
:100F0C00FFF7CCFF00237B621FE04B4B9B68FB6021
:100F1C004A4B1B684A4AA2FB03239B0C4FF47A7280
:100F2C0003FB02F2454B1B684549A1FB03139B0CC9
:100F3C005B08D31ABB60404B9B68FA68D31ABA683B
:100F4C009A42F8D87B6A01337B627B6A042BDCD92A
:100F5C00FB7930211846FFF7A1FF00233B621FE00D
:100F6C00354B9B687B61354B1B68354AA2FB0323D1
:100F7C009B0C4FF47A7203FB02F2304B1B68304926
:100F8C00A1FB03139B0C5B08D31A3B612A4B9B6898
:100F9C007A69D31A3A699A42F8D83B6A01333B62B0
:100FAC003B6A042BDCD9FB7930211846FFF776FF1E
:100FBC00214B9B68FB61214B1B68214AA2FB03233D
:100FCC009B0C962203FB02F21C4B1B681C49A1FBD9
:100FDC0003139B0C5B08D31ABB61174B9B68FA6914
:100FEC00D31ABA699A42F8D8FB7902211846FFF74E
:100FFC0055FFFB7928211846FFF750FFFB790C2190
:10100C001846FFF74BFFFB7906211846FFF746FF02
:10101C00FB790C4A042102F81310FB79094A5B0096
:10102C00134408225A70FB79184600F00DF800BFE3
:10103C002837BD4680BD00BF10E000E05400002002
:10104C0083DE1B437C00002080B586B000AF0346D6
:10105C00FB71FB7901211846FFF720FF00237B6110
:10106C001FE0144B9B683B61134B1B68134AA2FB9C
:10107C0003239B0C4FF47A7203FB02F20E4B1B689A
:10108C000E49A1FB03139B0C5B08D31AFB60094BA5
:10109C009B683A69D31AFA689A42F8D87B6901338B
:1010AC007B617B69012BDCD900BF00BF1837BD46C3
:1010BC0080BD00BF10E000E05400002083DE1B4325
:1010CC0090B587B000AF0346FB710B46BB7113465E
:1010DC007B711A4B07F108040FCB84E80F00FA79E7
:1010EC00174913465B0013449B000B440A331B78CF
:1010FC007A799A420AD9FA79114913465B0013445A
:10110C009B000B440A331B78013B7B717B799B0062
:10111C0018333B4453F8103CDAB2BB791344DBB2BE
:10112C005BB263F07F035BB2DAB2FB79114618460F
:10113C00FFF7B4FE00BF1C37BD4690BD506F0008D2
:10114C003470000880B582B000AF03460A46FB71CC
:10115C001346BB71BA79FB7911461846FFF7B0FEFE
:10116C0000BF0837BD4680BD80B582B000AF0346D6
:10117C003960FB7108E03B685A1C3A601A78FB79BD
:10118C0011461846FFF79CFE3B681B78002BF2D1EA
:10119C0000BF00BF0837BD4680BD000080B582B0DF
:1011AC0000AF0346FB71FB79064A5B00134408222F
:1011BC005A70FB7900211846FFF7A2FD00BF0837D3
:1011CC00BD4680BD7C00002080B582B000AF0346D8
:1011DC00FB71FB790C4A12F81320FB7942F00402E4
:1011EC00D1B2094A02F81310FB79074A12F81330EE
:1011FC0043F00803DAB2FB7911461846FFF74EFEAE
:10120C0000BF0837BD4680BD7C00002080B592B081
:10121C0000AF03463960FB80002387F8473007F1A5
:10122C00340300221A605A609A60DA603B68002B23
:10123C0000F08981FB8897493A6841F82320002304
:10124C0087F84730ACE0FA8897F847109248134675
:10125C005B0013449B000B4450F823308F4A93429D
:10126C000CD18F4B9B698E4A43F0040393618C4BDA
:10127C009B6903F004033B633B6B6AE0FA8897F8C5
:10128C004710854813465B0013449B000B4450F8F1
:10129C002330844A93420CD1814B9B69804A43F0A2
:1012AC00080393617E4B9B6903F00803FB62FB6AA6
:1012BC004FE0FA8897F84710774813465B001344C1
:1012CC009B000B4450F82330774A93420CD1744B5B
:1012DC009B69734A43F010039361714B9B6903F054
:1012EC001003BB62BB6A34E0FA8897F847106A486F
:1012FC0013465B0013449B000B4450F823306B4A9D
:10130C0093420CD1664B9B69654A43F02003936171
:10131C00634B9B6903F020037B627B6A19E0FA88BC
:10132C0097F847105C4813465B0013449B000B4432
:10133C0050F823305E4A93420BD1594B9B69584A63
:10134C0043F040039361564B9B6903F040033B62AF
:10135C003B6AFA8897F847104F4813465B001344D2
:10136C00DB000B44083330F813307B630023BB6382
:10137C000223FB63FA8897F84710474813465B0033
:10138C0013449B000B4450F8233007F134021146F0
:10139C00184603F039FA97F84730013387F847308D
:1013AC0097F84730032B7FF64EAF002387F8473072
:1013BC00C3E0FA8897F84710374813465B0013448C
:1013CC009B000B44063350F82330344A93420CD123
:1013DC00334B9B69324A43F004039361304B9B6956
:1013EC0003F00403FB61FB697FE0FA8897F8471070
:1013FC00294813465B0013449B000B44063350F8FA
:10140C002330284A93420CD1254B9B69244A43F044
:10141C0008039361224B9B6903F00803BB61BB6912
:10142C0063E0FA8897F847101B4813465B00134497
:10143C009B000B44063350F823301B4A93420CD1CB
:10144C00174B9B69164A43F010039361144B9B692D
:10145C0003F010037B617B6947E0FA8897F847102B
:10146C000D4813465B0013449B000B44063350F8A5
:10147C0023300E4A93421DD1094B9B69084A43F015
:10148C0020039361064B9B6903F020033B613B698E
:10149C002BE000BF800000204070000800080140D5
:1014AC0000100240000C01400010014000140140EB
:1014BC0000180140FA8897F84710254813465B003E
:1014CC0013449B000B44063350F82330214A9342BB
:1014DC000BD1214B9B69204A43F0400393611E4B77
:1014EC009B6903F04003FB60FB68FA8897F8471090
:1014FC00174813465B001344DB000B44143330F8DD
:10150C0013307B630123BB6301233B64FA8897F898
:10151C0047100F4813465B0013449B000B440633E3
:10152C0050F8233007F134021146184603F06CF9D9
:10153C0097F84730013387F8473097F84730032B3B
:10154C007FF637AF00E000BF4837BD4680BD00BF17
:10155C0040700008001801400010024090B585B0A2
:10156C0000AF0346FB800023BB600023FB7300230A
:10157C00FB731CE0FA88F97BA74813465B00134405
:10158C009B000B44063350F82300FA88F97BA24CDD
:10159C0013465B001344DB000B44143334F8133054
:1015AC000122194603F0CBFAFB7B0133FB73FB7B67
:1015BC00032BDFD90023FB7322E0FA88F97B9648D2
:1015CC0013465B0013449B000B4450F82300FA882D
:1015DC00F97B914C13465B001344DB000B4408333E
:1015EC0034F81330FC7B194603F092FA03461A4682
:1015FC0004F110033B4403F8082CFB7B0133FB7311
:10160C00FB7B032BD9D93A7A7B7A1343DAB2BB7AB8
:10161C001343DAB2FB7A1343DBB2002B01F08D805B
:10162C003B7A002B00F00082FA887B4913465B0062
:10163C0013441B010B4418331868FA887649134677
:10164C005B0013441B010B4428331B8801221946F1
:10165C0003F075FAFA88704913465B0013441B01BA
:10166C000B441C331868FA886B4913465B0013440F
:10167C001B010B442A331B880022194603F05FFA26
:10168C00FA88654913465B0013441B010B44203355
:10169C001868FA88604913465B0013441B010B441D
:1016AC002C331B880022194603F049FAFA885A4950
:1016BC0013465B0013441B010B4424331868FA884F
:1016CC00554913465B0013441B010B442E331B88F6
:1016DC000022194603F033FAFA884F4913465B008F
:1016EC0013441B010B441868FA884B4913465B00E2
:1016FC0013441B010B4410331B88194603F008FAE2
:10170C000346BB73BB7B002B06D0FB88434A52F8C5
:10171C00233001221A7005E0FB88404A52F823302E
:10172C0000221A70FA883C4913465B0013441B01D3
:10173C000B4418331868FA88374913465B00134476
:10174C001B010B4428331B880022194603F0F7F9C0
:10175C00FA88314913465B0013441B010B441C33BC
:10176C001868FA882C4913465B0013441B010B4480
:10177C002A331B880122194603F0E1F9FA8826491D
:10178C0013465B0013441B010B4420331868FA8882
:10179C00214913465B0013441B010B442C331B885B
:1017AC000022194603F0CBF9FA881B4913465B005B
:1017BC0013441B010B4424331868FA88164913464A
:1017CC005B0013441B010B442E331B88002219466B
:1017DC0003F0B5F9FA88104913465B0013441B015A
:1017EC000B441868FA880C4913465B0013441B0120
:1017FC000B4410331B88194603F08AF90346BB735C
:10180C00BB7B002B0CD0FB88044A52F823300133ED
:10181C0001221A700BE000BF40700008800000200D
:10182C00FB887F4A52F82330013300221A70FA8861
:10183C007C4913465B0013441B010B441833186896
:10184C00FA88784913465B0013441B010B44283378
:10185C001B880022194603F072F9FA887149134665
:10186C005B0013441B010B441C331868FA886D4948
:10187C0013465B0013441B010B442A331B880022C4
:10188C00194603F05CF9FA88664913465B00134469
:10189C001B010B4420331868FA88624913465B001D
:1018AC0013441B010B442C331B880122194603F0F3
:1018BC0046F9FA885B4913465B0013441B010B4441
:1018CC0024331868FA88574913465B0013441B01EC
:1018DC000B442E331B880022194603F030F9FA888A
:1018EC00504913465B0013441B010B441868FA88DB
:1018FC004C4913465B0013441B010B4410331B88EB
:10190C00194603F005F90346BB73BB7B002B07D0CC
:10191C00FB88434A52F82330023301221A7006E046
:10192C00FB883F4A52F82330023300221A70FA889F
:10193C003C4913465B0013441B010B4418331868D5
:10194C00FA88384913465B0013441B010B442833B7
:10195C001B880022194603F0F2F8FA883149134625
:10196C005B0013441B010B441C331868FA882D4987
:10197C0013465B0013441B010B442A331B880022C3
:10198C00194603F0DCF8FA88264913465B00134429
:10199C001B010B4420331868FA88224913465B005C
:1019AC0013441B010B442C331B880022194603F0F3
:1019BC00C6F8FA881B4913465B0013441B010B4401
:1019CC0024331868FA88174913465B0013441B012B
:1019DC000B442E331B880122194603F0B0F8FA8809
:1019EC00104913465B0013441B010B441868FA881A
:1019FC000C4913465B0013441B010B4410331B882A
:101A0C00194603F085F80346BB73BB7B002B26D02D
:101A1C00FB88034A52F82330033301221A701EE06C
:101A2C008000002040700008FB888C4A52F823305C
:101A3C0000221A70FB88894A52F8233001330022A5
:101A4C001A70FB88854A52F82330023300221A7030
:101A5C00FB88824A52F82330033300221A707B7AB7
:101A6C00002B00F00582FA887D4913465B00134475
:101A7C001B010B4418331868FA88794913465B002C
:101A8C0013441B010B4428331B880122194603F015
:101A9C0056F8FA88724913465B0013441B010B4439
:101AAC001C331868FA886E4913465B0013441B01FB
:101ABC000B442A331B880022194603F040F8FA889D
:101ACC00674913465B0013441B010B442033186811
:101ADC00FA88634913465B0013441B010B442C33F7
:101AEC001B880022194603F02AF8FA885C49134631
:101AFC005B0013441B010B4424331868FA885849C3
:101B0C0013465B0013441B010B442E331B8800222D
:101B1C00194603F014F8FA88514913465B00134434
:101B2C001B010B4404331868FA884D4913465B00BB
:101B3C0013441B010B4412331B88194602F0E8FFB7
:101B4C000346BB73BB7B002B07D0FB88434A52F880
:101B5C002330043301221A7006E0FB883F4A52F806
:101B6C002330043300221A70FA883D4913465B0077
:101B7C0013441B010B4418331868FA883849134670
:101B8C005B0013441B010B4428331B8800221946AD
:101B9C0002F0D5FFFA88324913465B0013441B014F
:101BAC000B441C331868FA882D4913465B00134408
:101BBC001B010B442A331B880122194602F0BFFF7C
:101BCC00FA88274913465B0013441B010B4420334E
:101BDC001868FA88224913465B0013441B010B4416
:101BEC002C331B880022194602F0A9FFFA881C49E5
:101BFC0013465B0013441B010B4424331868FA880A
:101C0C00174913465B0013441B010B442E331B88EE
:101C1C000022194602F093FFFA88114913465B0023
:101C2C0013441B010B4404331868FA880C491346FF
:101C3C005B0013441B010B4412331B88194602F042
:101C4C0067FF0346BB73BB7B002B0BD0FB88034A9F
:101C5C0052F82330053301221A700AE0800000206C
:101C6C0040700008FB88804A52F82330053300226C
:101C7C001A70FA887D4913465B0013441B010B4410
:101C8C0018331868FA88794913465B0013441B0112
:101C9C000B4428331B880022194602F050FFFA88A7
:101CAC00724913465B0013441B010B441C33186828
:101CBC00FA886E4913465B0013441B010B442A330C
:101CCC001B880022194602F03AFFFA88674913462E
:101CDC005B0013441B010B4420331868FA886349DA
:101CEC0013465B0013441B010B442C331B8801224D
:101CFC00194602F024FFFA885C4913465B00134432
:101D0C001B010B4424331868FA88584913465B00AE
:101D1C0013441B010B442E331B880022194602F07E
:101D2C000EFFFA88514913465B0013441B010B4408
:101D3C0004331868FA884D4913465B0013441B01A1
:101D4C000B4412331B88194602F0E2FE0346BB73A8
:101D5C00BB7B002B07D0FB88434A52F82330063359
:101D6C0001221A7006E0FB883F4A52F823300633F2
:101D7C0000221A70FA883D4913465B0013441B017C
:101D8C000B4418331868FA88384913465B0013441F
:101D9C001B010B4428331B880022194602F0CFFE8E
:101DAC00FA88324913465B0013441B010B441C3365
:101DBC001868FA882D4913465B0013441B010B4429
:101DCC002A331B880022194602F0B9FEFA882749EB
:101DDC0013465B0013441B010B4420331868FA882C
:101DEC00224913465B0013441B010B442C331B8804
:101DFC000022194602F0A3FEFA881C4913465B0028
:101E0C0013441B010B4424331868FA8817491346F2
:101E1C005B0013441B010B442E331B880122194613
:101E2C0002F08DFEFA88114913465B0013441B0126
:101E3C000B4404331868FA880C4913465B001344AE
:101E4C001B010B4412331B88194602F061FE03463A
:101E5C00BB73BB7B002B27D0FB88034A52F8233083
:101E6C00073301221A701FE0800000204070000828
:101E7C00FB888D4A52F82330043300221A70FB88F9
:101E8C00894A52F82330053300221A70FB88864A9F
:101E9C0052F82330063300221A70FB88824A52F81B
:101EAC002330073300221A70BB7A002B00F0068215
:101EBC00FA887E4913465B0013441B010B4418330C
:101ECC001868FA88794913465B0013441B010B44CC
:101EDC0028331B880122194602F031FEFA88734917
:101EEC0013465B0013441B010B441C331868FA881F
:101EFC006E4913465B0013441B010B442A331B88A9
:101F0C000022194602F01BFEFA88684913465B0052
:101F1C0013441B010B4420331868FA886349134699
:101F2C005B0013441B010B442C331B880022194605
:101F3C0002F005FEFA885D4913465B0013441B0151
:101F4C000B4424331868FA88584913465B00134431
:101F5C001B010B442E331B880022194602F0EFFDA7
:101F6C00FA88524913465B0013441B010B44083397
:101F7C001868FA884D4913465B0013441B010B4447
:101F8C0014331B88194602F0C3FD0346BB73BB7B9D
:101F9C00002B07D0FB88444A52F823300833012227
:101FAC001A7006E0FB88404A52F8233008330022AE
:101FBC001A70FA883D4913465B0013441B010B440D
:101FCC0018331868FA88394913465B0013441B010F
:101FDC000B4428331B880022194602F0B0FDFA8806
:101FEC00324913465B0013441B010B441C33186825
:101FFC00FA882E4913465B0013441B010B442A3309
:10200C001B880122194602F09AFDFA8827491346CB
:10201C005B0013441B010B4420331868FA882349D6
:10202C0013465B0013441B010B442C331B8800220A
:10203C00194602F084FDFA881C4913465B001344D0
:10204C001B010B4424331868FA88184913465B00AB
:10205C0013441B010B442E331B880022194602F03B
:10206C006EFDFA88114913465B0013441B010B44A7
:10207C0008331868FA880D4913465B0013441B019A
:10208C000B4414331B88194602F042FD0346BB7304
:10209C00BB7B002B0CD0FB88034A52F8233009334E
:1020AC0001221A700BE000BF800000204070000875
:1020BC00FB88804A52F82330093300221A70FA88C0
:1020CC007D4913465B0013441B010B4418331868FD
:1020DC00FA88794913465B0013441B010B442833DF
:1020EC001B880022194602F02AFDFA887249134611
:1020FC005B0013441B010B441C331868FA886E49AF
:10210C0013465B0013441B010B442A331B8800222B
:10211C00194602F014FDFA88674913465B00134414
:10212C001B010B4420331868FA88634913465B0083
:10213C0013441B010B442C331B880122194602F05B
:10214C00FEFCFA885C4913465B0013441B010B44EC
:10215C0024331868FA88584913465B0013441B0152
:10216C000B442E331B880022194602F0E8FCFA8837
:10217C00514913465B0013441B010B440833186888
:10218C00FA884D4913465B0013441B010B4414336E
:10219C001B88194602F0BCFC0346BB73BB7B002BAF
:1021AC0007D0FB88434A52F823300A3301221A70B5
:1021BC0006E0FB883F4A52F823300A3300221A709B
:1021CC00FA883D4913465B0013441B010B4418333A
:1021DC001868FA88384913465B0013441B010B44FA
:1021EC0028331B880022194602F0A9FCFA883249D0
:1021FC0013465B0013441B010B441C331868FA880C
:10220C002D4913465B0013441B010B442A331B88D6
:10221C000022194602F093FCFA88274913465B000A
:10222C0013441B010B4420331868FA8822491346C7
:10223C005B0013441B010B442C331B8800221946F2
:10224C0002F07DFCFA881C4913465B0013441B0109
:10225C000B4424331868FA88174913465B0013445F
:10226C001B010B442E331B880122194602F067FC1C
:10227C00FA88114913465B0013441B010B440833C5
:10228C001868FA880C4913465B0013441B010B4475
:10229C0014331B88194602F03BFC0346BB73BB7B13
:1022AC00002B27D0FB88034A52F823300B33012232
:1022BC001A701FE08000002040700008FB888D4AD7
:1022CC0052F82330083300221A70FB88894A52F8DE
:1022DC002330093300221A70FB88864A52F82330C7
:1022EC000A3300221A70FB88824A52F823300B33CF
:1022FC0000221A70FB7A002B00F00282FA887E49C9
:10230C0013465B0013441B010B4418331868FA88FE
:10231C00794913465B0013441B010B4428331B887B
:10232C000122194602F00BFCFA88734913465B0034
:10233C0013441B010B441C331868FA886E4913466E
:10234C005B0013441B010B442A331B8800221946E3
:10235C0002F0F5FBFA88684913465B0013441B0135
:10236C000B4420331868FA88634913465B00134406
:10237C001B010B442C331B880022194602F0DFFB97
:10238C00FA885D4913465B0013441B010B4424334C
:10239C001868FA88584913465B0013441B010B4418
:1023AC002E331B880022194602F0C9FBFA885249C9
:1023BC0013465B0013441B010B440C331868FA885A
:1023CC004D4913465B0013441B010B4416331B8809
:1023DC00194602F09DFB0346BB73BB7B002B07D059
:1023EC00FB88444A52F823300C3301221A7006E061
:1023FC00FB88404A52F823300C3300221A70FA88BA
:10240C003D4913465B0013441B010B4418331868F9
:10241C00FA88394913465B0013441B010B442833DB
:10242C001B880022194602F08AFBFA8832491346AF
:10243C005B0013441B010B441C331868FA882E49AB
:10244C0013465B0013441B010B442A331B880122E7
:10245C00194602F074FBFA88274913465B001344B3
:10246C001B010B4420331868FA88234913465B0080
:10247C0013441B010B442C331B880022194602F019
:10248C005EFBFA881C4913465B0013441B010B448A
:10249C0024331868FA88184913465B0013441B014F
:1024AC000B442E331B880022194602F048FBFA8895
:1024BC00114913465B0013441B010B440C33186881
:1024CC00FA880D4913465B0013441B010B44163369
:1024DC001B88194602F01CFB0346BB73BB7B002B0D
:1024EC000CD0FB88034A52F823300D3301221A70AA
:1024FC000BE000BF8000002040700008FB88AB4A56
:10250C0052F823300D3300221A70FA88A84913466A
:10251C005B0013441B010B4418331868FA88A44958
:10252C0013465B0013441B010B4428331B88002209
:10253C00194602F004FBFA889D4913465B001344CC
:10254C001B010B441C331868FA88994913465B002D
:10255C0013441B010B442A331B880022194602F03A
:10256C00EEFAFA88924913465B0013441B010B44A4
:10257C0020331868FA888E4913465B0013441B01FC
:10258C000B442C331B880122194602F0D8FAFA8826
:10259C00874913465B0013441B010B442433186812
:1025AC00FA88834913465B0013441B010B442E33FA
:1025BC001B880022194602F0C2FAFA887C4913469D
:1025CC005B0013441B010B440C331868FA887849E0
:1025DC0013465B0013441B010B4416331B8819462E
:1025EC0002F096FA0346BB73BB7B002B07D0FB882B
:1025FC006E4A52F823300E3301221A7006E0FB8823
:10260C006A4A52F823300E3300221A70FA8868494D
:10261C0013465B0013441B010B4418331868FA88EB
:10262C00634913465B0013441B010B4428331B887E
:10263C000022194602F083FAFA885D4913465B00C2
:10264C0013441B010B441C331868FA885849134671
:10265C005B0013441B010B442A331B8800221946D0
:10266C0002F06DFAFA88524913465B0013441B01C1
:10267C000B4420331868FA884D4913465B00134409
:10268C001B010B442C331B880022194602F057FA0D
:10269C00FA88474913465B0013441B010B4424334F
:1026AC001868FA88424913465B0013441B010B441B
:1026BC002E331B880122194602F041FAFA883C4954
:1026CC0013465B0013441B010B440C331868FA8847
:1026DC00374913465B0013441B010B4416331B880C
:1026EC00194602F015FA0346BB73BB7B002B35D0A1
:1026FC00FB882E4A52F823300F3301221A702DE03A
:10270C00FB882A4A52F823300C3300221A70FB88BB
:10271C00264A52F823300D3300221A70FB88234AC4
:10272C0052F823300E3300221A70FB881F4A52F8DD
:10273C0023300F3300221A7010E00023FB730AE0E1
:10274C00FB881A4A52F82320FB7B134400221A7090
:10275C00FB7B0133FB73FB7B0F2BF1D90023FB734A
:10276C001CE0FA88F97B124813465B0013449B006B
:10277C000B44063350F82300FA88F97B0C4C1346B3
:10278C005B001344DB000B44143334F81330012288
:10279C00194602F0D4F9FB7B0133FB73FB7B032B53
:1027AC00DFD900BF00BF1437BD4690BD80000020AC
:1027BC0040700008B0B5B0B000AF0346FB8007F125
:1027CC00A80300221A605A609A60DA6007F1980335
:1027DC0000221A605A609A60DA6007F190030022B6
:1027EC001A605A6007F1740300221A605A609A60EA
:1027FC00DA601A615A619A610023C7F8BC30002371
:10280C00C7F8B830FEF74CFAFB88874A5B011344D3
:10281C001B68864A93420CD1854B9B69844A43F0D2
:10282C0004039361824B9B6903F00403BB62BB6A94
:10283C0052E0FB887C4A5B0113441B687D4A93423F
:10284C000CD17B4B9B697A4A43F008039361784B1C
:10285C009B6903F008037B627B6A3DE0FB88724A4C
:10286C005B0113441B68744A93420CD1704B9B69F7
:10287C006F4A43F0100393616D4B9B6903F0100397
:10288C003B623B6A28E0FB88674A5B0113441B6888
:10289C006A4A93420CD1664B9B69654A43F020030C
:1028AC009361634B9B6903F02003FB61FB6913E0AD
:1028BC00FB885D4A5B0113441B68614A93420BD150
:1028CC005B4B9B695A4A43F040039361584B9B699D
:1028DC0003F04003BB61BB69FB88534A5B011344A3
:1028EC0004331B88C7F8A8300223C7F8AC30022386
:1028FC00C7F8B430FB884C4A5B0113441B6807F1E2
:10290C00A8021146184601F07FFFFB88464A5B017E
:10291C00134414331B681846FDF708FE4FF00002F1
:10292C00484BFDF7A7FF02460B4610461946FEF72B
:10293C0089F80346C7F8BC30FB883B4A5B0113445B
:10294C0014331B681846FDF7F1FD04460D46D7F805
:10295C00BC00FDF7EBFD4FF000023B4BFDF7AAFC72
:10296C0002460B46104619464FF00002374BFDF756
:10297C0057FE02460B4620462946FDF77BFF0246D2
:10298C000B46104619464FF000022F4BFDF790FCFA
:10299C0002460B4610461946FEF754F80346C7F894
:1029AC00B830FB88204A5B01134408331B68284A63
:1029BC0093420CD11E4B9B691D4A43F400639361F7
:1029CC001B4B9B6903F400637B617B6959E0FB88BB
:1029DC00154A5B01134408331B68B3F1804F0CD1CB
:1029EC00134BDB69124A43F00103D361104BDB69D3
:1029FC0003F001033B613B6943E0FB880A4A5B013E
:102A0C00134408331B68134A934225D1084BDB69E6
:102A1C00074A43F00203D361054BDB6903F0020361
:102A2C00FB60FB682DE000BF7070000800080140DF
:102A3C0000100240000C0140001001400014014045
:102A4C0000180140000049410000F03F00004940DF
:102A5C00002C014000040040FB885F4A5B011344DA
:102A6C0008331B685D4A93420BD15D4BDB695C4AB2
:102A7C0043F00403D3615A4BDB6903F00403BB60DE
:102A8C00BB68FB88544A5B01134408331B68FB6228
:102A9C00D7F8BC303B6300237B63D7F8B830BB63FB
:102AAC000023FB6380237B6407F12C03184603F09F
:102ABC00DEFB4FF48053C7F8983007F1980207F10A
:102ACC002C031146184603F0DDFD07F12C031846C4
:102ADC0003F01CFC0023C7F890300023C7F8943097
:102AEC0007F1900207F12C031146184604F042F945
:102AFC0060237B670023BB670023FB670023C7F8B9
:102B0C008430FB88344A5B01134410331A6807F194
:102B1C00740107F12C03184603F0F2FCD7F8B80047
:102B2C00FDF704FD04460D46FB882B4A5B0113445C
:102B3C0018331B681846FDF71BFD4FF00002294B9C
:102B4C00FDF798FE02460B4620462946FDF768FD28
:102B5C0002460B46FC8810461946FDF773FF0346E8
:102B6C009AB2214B23F82420D7F8B800FDF7DEFCED
:102B7C0004460D46FB88184A5B0113441C331B6842
:102B8C001846FDF7F5FC4FF00002164BFDF772FEF0
:102B9C0002460B4620462946FDF742FD02460B46EF
:102BAC00FC8810461946FDF74DFF034699B20E4AB4
:102BBC00A30013440A465A80FB88074A5B0113445E
:102BCC0010331A6807F12C031146184603F0F6FB74
:102BDC0000BFC037BD46B0BD707000080008004093
:102BEC00001002400000344084000020B0B584B0D6
:102BFC0000AF03463960FB800023FB81FB88204A31
:102C0C009B0013445B881946FB881D4A32F823301D
:102C1C00CB1A1846FDF7F0FF034639681846FDF746
:102C2C008FFA03461846FDF7A3FC4FF00002154B34
:102C3C00FDF720FE02460B4614461D46FB88104A43
:102C4C0032F823301846FDF781FC02460B4620462D
:102C5C002946FDF72FFB02460B4610461946FDF799
:102C6C00F1FE0346FB81FB88074A5B0113440C33DE
:102C7C001B68FA891A6000BF1037BD46B0BD00BF93
:102C8C0084000020008066407070000880B400AFA3
:102C9C00144B1B68062B20D1124B00221A6018E033
:102CAC00104B1B68104A52F823200E4B1B680F491F
:102CBC0051F823309A4204D00D4B00221A6000BF09
:102CCC000BE00B4B01221A60064B1B680133054AC3
:102CDC001360044B1B68052BE2DD00BFBD4680BCB6
:102CEC00704700BFF0010020D80100201C0000201C
:102CFC003400002080B500AF714B1B68012B40F0F5
:102D0C008680704B1B68002B08D14FF0000100200F
:102D1C00FFF76CFF6C490020FFF768FF0020FEF7FF
:102D2C0093F96A490020FEF71FFAA72140F293207D
:102D3C0000F0ACFCA72140F24B2000F0A7FC40F2C5
:102D4C004D114FF4B97000F0A1FC40F24D1140F25E
:102D5C009F1000F09BFCA72140F22A2000F096FC6B
:102D6C00A7214FF4F77000F091FC40F24D114FF495
:102D7C00937000F08BFC40F24D114FF4A57000F0F5
:102D8C0085FCA7214FF4F77000F080FCA7214FF4CD
:102D9C00DC7000F07BFC40F24D1140F2151000F09D
:102DAC0075FC40F24D114FF4A57000F06FFC40F231
:102DBC009B214FF4DC7000F069FC00F085FC414B6A
:102DCC001B68002B04D14FF000010020FFF70EFF11
:102DDC0040F2DC5001F010FC3D4B00221A703D4BD0
:102DEC0000221A60364B02221A603B4B00221A60FA
:102DFC0018220021394804F06CF8324B1B68012B67
:102E0C0002D1374B01221A6000F068FC56E02C4BC3
:102E1C001B68002B52D10020FEF716F93149002017
:102E2C00FEF7A2F92A4B1B785A1CD1B2284A117012
:102E3C001A462D4B53F82230FA21184600F026FC86
:102E4C00234B1B78052B02D1214B00221A7000F06A
:102E5C003BFC40F2DC5001F0CFFB1E4B00221A6011
:102E6C00174B02221A60182200211C4804F031F87A
:102E7C00194B1B680133184A1360124B00221A605D
:102E8C00154B1B68052B17D10020FEF7DDF81749F1
:102E9C000020FEF769F9104B00221A6042F2107004
:102EAC0001F0AAFB42F2107001F0A6FB42F2107086
:102EBC0001F0A2FB00F012FC00F010FC00BF80BD82
:102ECC0034000020000200200000B442606F0008B3
:102EDC00C4010020F0010020F4010020D8010020E2
:102EEC00FC010020686F000800000020786F0008CB
:102EFC0080B500AF6F4B1B78012B11D13121002015
:102F0C00FEF720F90A2001F077FB6B4B1B686B4A2C
:102F1C00012142F82310684B1B680133664A136089
:102F2C00644B5B78012B11D132210020FEF70AF99A
:102F3C000A2001F061FB604B1B68604A022142F8D9
:102F4C0023105D4B1B6801335B4A1360594B9B7814
:102F5C00012B0ED133210020FEF7F4F8564B1B68E1
:102F6C00564A032142F82310534B1B680133524A33
:102F7C001360504B1B79012B0ED134210020FEF72E
:102F8C00E1F84D4B1B684D4A042142F823104A4B83
:102F9C001B680133484A1360464B5B79012B0ED1F9
:102FAC0035210020FEF7CEF8434B1B68434A052120
:102FBC0042F82310404B1B6801333F4A13603D4BD2
:102FCC009B79012B0ED136210020FEF7BBF83A4B32
:102FDC001B683A4A062142F82310374B1B68013311
:102FEC00354A1360334B1B7A012B0ED1372100204D
:102FFC00FEF7A8F8304B1B68304A072142F8231023
:10300C002D4B1B6801332C4A13602A4B5B7A012B26
:10301C000ED138210020FEF795F8274B1B68274A64
:10302C00082142F82310244B1B680133224A1360F9
:10303C00204B9B7A012B0ED139210020FEF782F810
:10304C001D4B1B681D4A092142F823101A4B1B68A3
:10305C000133194A1360174B5B7B012B0ED13021C6
:10306C000020FEF76FF8144B1B68144A002142F83D
:10307C002310114B1B6801330F4A13600E4B1B6856
:10308C00062B15D10C4B00221A600D4B00221A6036
:10309C000C4B00221A600020FDF7D6FF0A490020D5
:1030AC00FEF762F84FF47A7001F0A6FA00F016FB06
:1030BC0000BF80BDC8010020F80100201C000020CA
:1030CC00FC01002000020020886F000880B500AFD2
:1030DC007D4B1B78012B11D1642001F08DFA31212D
:1030EC000020FEF72FF8794B1B68794A012142F832
:1030FC002310764B1B680133744A1360724B5B7858
:10310C00012B11D1642001F077FA32210020FEF757
:10311C0019F86E4B1B686E4A022142F823106B4B58
:10312C001B680133694A1360674B9B78012B11D1E3
:10313C00642001F061FA33210020FEF703F8634BA1
:10314C001B68634A032142F82310604B1B68013350
:10315C005E4A13605C4B1B79012B11D1642001F08A
:10316C004BFA34210020FDF7EDFF584B1B68584AF1
:10317C00042142F82310554B1B680133534A13604A
:10318C00514B5B79012B11D1642001F035FA3521BB
:10319C000020FDF7D7FF4D4B1B684D4A052142F827
:1031AC0023104A4B1B680133484A1360464B9B79EA
:1031BC00012B11D1642001F01FFA36210020FDF7FC
:1031CC00C1FF424B1B68424A062142F823103F4B79
:1031DC001B6801333D4A13603B4B1B7A012B11D109
:1031EC00642001F009FA37210020FDF7ABFF374BC3
:1031FC001B68374A072142F82310344B1B680133F4
:10320C00324A1360304B5B7A012B11D1642001F0F0
:10321C00F3F938210020FDF795FF2C4B1B682C4A45
:10322C00082142F82310294B1B680133274A1360ED
:10323C00254B9B7A012B11D1642001F0DDF939214A
:10324C000020FDF77FFF214B1B68214A092142F822
:10325C0023101E4B1B6801331C4A13601A4B5B7BFB
:10326C00012B11D1642001F0C7F930210020FDF7AA
:10327C0069FF164B1B68164A002142F82310134BAA
:10328C001B680133114A13600F4BDB7B012B19D1E7
:10329C000020FDF7D9FE0D4B1B681A4613465B0048
:1032AC001344DB001A460021094803F012FE074BB9
:1032BC0000221A60074B00221A60642001F09CF96E
:1032CC0000F00CFA00BF80BDC8010020F001002006
:1032DC00D80100200002002080B485B000AF7860D7
:1032EC0039600023FB730EE0FB7B7A6813441A7879
:1032FC00FB7B39680B441B789A4201D0002306E013
:10330C00FB7B0133FB73FB7B032BEDD901231846AD
:10331C001437BD4680BC704780B584B000AF786070
:10332C000023FB730FE0FB7B9B000C4A13441946F4
:10333C007868FFF7D1FF0346002B01D0012308E08A
:10334C00FB7B0133FB73064B1B78FA7B9A42EAD367
:10335C00002318461037BD4680BD00BF3C0000203E
:10336C005000002090B585B000AF7860274B1B78DB
:10337C00042B34D80023FB7310E0FB7B7A681A44CF
:10338C00224B1B781C46FB7B10782149A2000A4477
:10339C00134402461A70FB7B0133FB73FB7B032B3C
:1033AC00EBD91A4B1B780133DAB2184B1A70002088
:1033BC00FDF74AFE17490020FDF7D6FEC82140F262
:1033CC00932000F063F9C8214FF4447000F05EF9CB
:1033DC0000F07AF94FF47A7001F00EF912E0002047
:1033EC00FDF732FE0C490020FDF7BEFE4FF4FA71DA
:1033FC004FF4C47000F04AF900F066F94FF47A709B
:10340C0001F0FAF800BF1437BD4690BD5000002003
:10341C003C000020986F0008A86F000880B584B0AD
:10342C0000AF8F4B1B78002B00F0AD808D4B1B78C1
:10343C00002B56D10020FDF707FE8B490020FDF72D
:10344C0093FE07F10C031946262000F000FE0346FC
:10345C00FB73FB7B002B40F0FF803B1D184600F0FC
:10346C001BFE0346FB73FB7B002B40F0F5803B1DE2
:10347C007E491846FFF730FF0346002B14D0794BDA
:10348C0001221A700020FDF7DFFD79490020FDF7BD
:10349C006BFEC82140F20B2000F0F8F800F014F994
:1034AC00C82001F0A9F819E00020FDF7CDFD714905
:1034BC000020FDF759FE4FF4FA714FF4C47000F080
:1034CC00E5F800F001F94FF47A7001F095F800205E
:1034DC00FDF7BAFD64490020FDF746FE00F062FEE0
:1034EC00BAE007F10C031946262000F0B0FD0346A4
:1034FC00FB73FB7B002B40F0AF803B1D184600F0AC
:10350C00CBFD0346FB73FB7B002B40F0A5803B1DE2
:10351C001846FFF701FF0346002B0CD13B1D534906
:10352C001846FFF7D9FE0346002B04D13B1D184665
:10353C00FFF718FF12E00020FDF786FD4E49002032
:10354C00FDF712FE4FF4FA714FF4C47000F09EF8C0
:10355C0000F0BAF84FF47A7001F04EF8404B0022AC
:10356C001A70404B00221A700020FDF76DFD434984
:10357C000020FDF7F9FD012201210020FDF7A0FD3F
:10358C0000F010FE68E007F10C031946262000F04D
:10359C005EFD0346FB73FB7B002B5DD13B1D184688
:1035AC0000F07AFD0346FB73FB7B002B54D13B1DD3
:1035BC001846FFF7B1FE0346002B2CD00020FDF778
:1035CC0043FD2F490020FDF7CFFD2E490020FFF7CA
:1035DC000DFBC82140F2932000F058F8C8214FF49D
:1035EC00447000F053F800F06FF840F2DC5001F03A
:1035FC0003F84FF000010020FFF7F8FA0020FDF768
:10360C0023FD1E490020FDF7AFFD01220121002002
:10361C00FDF756FD1EE00020FDF716FD1A490020AF
:10362C00FDF7A2FD4FF4FA714FF4C47000F02EF8C0
:10363C0000F04AF84FF47A7000F0DEFF0020FDF73E
:10364C0003FD0E490020FDF78FFD01220121002012
:10365C00FDF736FD00F0A6FD00BF1037BD4680BD5E
:10366C000402002005020020B86F0008380000207A
:10367C00CC6F0008DC6F0008EC6F0008FC6F0008D2
:10368C00606F00080000B4420C70000880B582B076
:10369C0000AF786039600B4A7B68B2FBF3F34FF0F4
:1036AC008042013BD3624FF08043DB6A4FF0804293
:1036BC005B08D363386800F09FFF00BF0837BD4636
:1036CC0080BD00BF40420F0080B400AF4FF080437C
:1036DC000022DA6300BFBD4680BC704780B500AFE6
:1036EC0000F028FF00F0B8F800F082FA00F0FAF8C9
:1036FC0000F05CF900F0FCF900F022F908214948CF
:10370C0002F05CFE0021484802F058FE0020FFF752
:10371C0051F80020FDF7E6FB0020FDF795FC002298
:10372C0000210020FDF7CCFC404B1B68002B09D17D
:10373C000020FDF733FD0020FDF746FD3C4900203D
:10374C00FDF712FD394B1B68012B03D139490020C1
:10375C00FDF70AFD012201210020FDF7B1FC3649DD
:10376C000020FDF753FD00F07BFB334BDB78012B86
:10377C0021D1314BDB79012B1DD1304B01221A6049
:10378C002F4B1B681A4613465B001344DB001A468A
:10379C0000212C4803F09DFB0020FDF755FC2A4925
:1037AC000020FDF7E1FC012201210020FDF788FC3F
:1037BC00C82000F021FF204BDB7A012B0FD1234BCB
:1037CC0001221A70224B00221A700020FDF73CFCDB
:1037DC0020490020FDF7C8FCC82000F00DFF002098
:1037EC00FDF7BCFE0A2000F007FF104B1B68002BF6
:1037FC000CD1164B1B78002B08D1FFF767FC0A2065
:10380C0000F0FAFEFFF742FAFFF774FA074B1B6859
:10381C00012B04D1FFF76CFB642000F0EDFEFFF7E9
:10382C00FDFDA2E77C01002034010020FC010020FA
:10383C00FC6F000814700008C80100200002002072
:10384C00F0010020D80100202470000804020020A0
:10385C0005020020B86F000880B590B000AF07F1EA
:10386C00180328220021184603F033FB3B1D0022CD
:10387C001A605A609A60DA601A610123BB614FF4D6
:10388C008033FB6100233B620123BB6202237B6319
:10389C004FF48033BB634FF4E013FB6307F1180361
:1038AC00184601F001FE0346002B01D000F01AFA75
:1038BC000F237B600223BB600023FB604FF480630B
:1038CC003B6100237B613B1D0221184602F06EF820
:1038DC000346002B01D000F005FA00BF4037BD466F
:1038EC0080BD000080B500AF124B134A1A60114B1B
:1038FC00124A5A600F4B00229A600E4B0022DA607B
:10390C000C4B4FF480421A610A4B00225A61094B4E
:10391C0000229A61074B0022DA61064B00221A62E0
:10392C00044801F025F90346002B01D000F0DAF928
:10393C0000BF80BD8800002000540040A08601001C
:10394C0080B500AF174B184A1A60164B4FF48272B1
:10395C005A60144B00229A60124B0022DA60114B11
:10396C0000221A610F4B00225A610E4B4FF4007269
:10397C009A610C4B1022DA610A4B00221A62094B35
:10398C0000225A62074B00229A62064B0A22DA6224
:10399C00044802F085F90346002B01D000F0A2F98F
:1039AC0000BF80BDDC0000200038004080B596B020
:1039BC0000AF07F1480300221A605A609A60DA607F
:1039CC0007F1400300221A605A6007F12403002219
:1039DC001A605A609A60DA601A615A619A613B1DEA
:1039EC0020220021184603F074FA3F4B3F4A1A601C
:1039FC003D4B00225A603C4B00229A603A4B4FF6EA
:103A0C00FF72DA60384B00221A61374B00225A6180
:103A1C00354B80229A61344802F029FC0346002B76
:103A2C0001D000F05FF94FF48053BB6407F14803F9
:103A3C0019462D4802F026FE0346002B01D000F05B
:103A4C0051F9294802F062FC0346002B01D000F02A
:103A5C0049F900233B6400237B6407F140031946BA
:103A6C00214803F087F90346002B01D000F03AF906
:103A7C0060237B620023BB620023FB6200233B6359
:103A8C0000237B634FF48073BB630023FB6307F15C
:103A9C00240300221946144802F032FD0346002B81
:103AAC0001D000F01FF900237B600023BB600023D2
:103ABC00FB6000233B6100237B614FF40053BB612F
:103ACC0000233B623B1D1946074803F0B1F903463E
:103ADC00002B01D000F006F9034800F06BFC00BF8E
:103AEC005837BD4680BD00BF34010020002C01407A
:103AFC0080B58EB000AF07F1280300221A605A601F
:103B0C009A60DA6007F1200300221A605A603B1DAC
:103B1C0000221A605A609A60DA601A615A619A61DE
:103B2C00324B4FF080421A60304B47225A602F4B79
:103B3C0000229A602D4B4FF6FF72DA602B4B00225D
:103B4C001A612A4B80229A61284802F090FB0346A6
:103B5C00002B01D000F0C6F84FF48053BB6207F184
:103B6C0028031946214802F08DFD0346002B01D095
:103B7C0000F0B8F81D4802F0C9FB0346002B01D039
:103B8C0000F0B0F800233B6200237B6207F12003B6
:103B9C001946164803F0EEF80346002B01D000F04E
:103BAC00A1F860237B600023BB600023FB60002333
:103BBC007B613B1D082219460C4802F0A1FC034610
:103BCC00002B01D000F08EF83B1D0C221946074843
:103BDC0002F096FC0346002B01D000F083F803485A
:103BEC0000F0E8FB00BF3837BD4680BD7C010020EB
:103BFC0080B588B000AF07F1100300221A605A603C
:103C0C009A60DA60344B9B69334A43F0200393612A
:103C1C00314B9B6903F02003FB60FB682E4B9B69C7
:103C2C002D4A43F0040393612B4B9B6903F004036F
:103C3C00BB60BB68284B9B69274A43F00803936120
:103C4C00254B9B6903F008037B607B680022F02105
:103C5C00224800F074FF002241F20101204800F0DC
:103C6C006EFF0F233B6100237B610223BB6107F1D5
:103C7C0010031946194800F0C7FDF0233B610123DE
:103C8C007B610023BB610223FB6107F11003194622
:103C9C00124800F0B9FD01233B6101237B61002335
:103CAC00BB610223FB6107F1100319460C4800F0BD
:103CBC00ABFD4FF480533B6101237B610123BB615E
:103CCC000223FB6107F110031946054800F09CFD27
:103CDC0000BF2037BD4680BD0010024000080140E7
:103CEC00000C014080B400AF72B600BF00BFFDE70E
:103CFC0080B586B002AF0346FB7107F10F02F91DC8
:103D0C00642300930123044802F04EF8FB7B184611
:103D1C001037BD4680BD00BFDC00002080B582B0EE
:103D2C0000AF03460A46FB711346BB7100224FF4E9
:103D3C0080510D4800F003FFFB795B00DBB203F010
:103D4C007E03DBB21846FFF7D3FFBB791846FFF7AB
:103D5C00CFFF01224FF48051034800F0F0FE00BF6A
:103D6C000837BD4680BD00BF000C014080B584B053
:103D7C0000AF0346FB7100224FF48051104800F055
:103D8C00DEFE97F907305B005BB203F07E035BB29B
:103D9C0063F07F035BB2DBB21846FFF7A9FF00208C
:103DAC00FFF7A6FF0346FB7301224FF48051044832
:103DBC0000F0C5FEFB7B18461037BD4680BD00BF2A
:103DCC00000C014080B584B000AF03460A46FB717D
:103DDC001346BB71FB791846FFF7C8FF0346FB730C
:103DEC00FA7BBB791343DAB2FB7911461846FFF71D
:103DFC0095FF00BF1037BD4680BD80B584B000AFC5
:103E0C0003460A46FB711346BB71FB791846FFF754
:103E1C00ADFF0346FB7397F90630DB435AB297F9B3
:103E2C000F3013405BB2DAB2FB7911461846FFF73C
:103E3C0075FF00BF1037BD4680BD80B500AF1420A4
:103E4C00FFF794FF03211420FFF7BCFF00BF80BDD8
:103E5C0080B500AF0F210120FFF760FF00BF80BDD0
:103E6C0080B500AF01224FF48051134800F067FE7B
:103E7C0001220121104800F062FEFFF7E9FF8D21BD
:103E8C002A20FFF74BFF3E212B20FFF747FF1E2177
:103E9C002D20FFF743FF00212C20FFF73FFF40218F
:103EAC001520FFF73BFF3D211120FFF737FFFFF7F0
:103EBC00C4FF00BF80BD00BF000C014090B589B0AD
:103ECC0000AFB9607B600346FB731346BB730223E0
:103EDC00FB770023BB7700237B77FB7B0C2B06D077
:103EEC000E2B09D11223BB7710237B7705E07723A8
:103EFC00BB7730237B7700E000BFBB7F63F07F0391
:103F0C00DBB219460220FFF709FF80210420FFF7DE
:103F1C0074FF80210A20FFF755FF00210120FFF7D5
:103F2C00FDFE0023BB610AE0BA68BB6913441B7831
:103F3C0019460920FFF7F2FEBB690133BB61BB7B5D
:103F4C00BA699A42F0D3FB7B19460120FFF7E6FED3
:103F5C00FB7B0C2B03D180210D20FFF733FF4FF49B
:103F6C00FA63BB610420FFF701FF03463B77BB6993
:103F7C00013BBB61BB69002B0AD03B7F03F0010303
:103F8C00002B05D13A7F7B7F1340DBB2002BE9D0AD
:103F9C0080210D20FFF731FFBB69002B52D006208A
:103FAC00FFF7E4FE034603F01B03002B48D100236C
:103FBC00FB773A7FBB7F1340DBB203F00103002B8E
:103FCC0001D00123FB77FB7B0C2B3BD10A20FFF7A5
:103FDC00CDFE03463B770C20FFF7C8FE034603F0EB
:103FEC000703FB75FB7D002B08D03B7F013BDA0000
:103FFC00FB7D13441A463B6B1A6004E03B7FDB00ED
:10400C001A463B6B1A603B7F002B01D101233B7797
:10401C003B7F102B01D910233B770023BB610AE0B7
:10402C007A68BB69D4180920FFF7A0FE03462370F9
:10403C00BB690133BB613B7FBA699A42F0D301E0A3
:10404C000223FB77FB7F18462437BD4690BD80B515
:10405C0086B002AF03463960FB7107210D20FFF7D4
:10406C005DFE3B68FA791A7007F1080300933B6810
:10407C00012239680C20FFF721FF0346FB73FB7B01
:10408C00002B02D1BB68102B01D00223FB73FB7BEE
:10409C0018461037BD4680BD80B586B002AF78603B
:1040AC0000237B7300210D20FFF738FE7B689322E1
:1040BC001A707B68013320221A7007F108030093F1
:1040CC007B68022279680C20FFF7F8FE0346FB732D
:1040DC00FB7B002B18D10023BB7309E0BB7B7A68F8
:1040EC0013441A787B7B53407B73BB7B0133BB73CC
:1040FC00BB7B032BF2D9BB7B7A6813441B787A7B8E
:10410C009A4201D00223FB73FB7B18461037BD4645
:10411C0080BD90B587B000AFF8600B467A60FB723B
:10412C0004210520FFF769FE80210A20FFF74AFED3
:10413C000023FB750AE0FB7DFA6813441B781946D3
:10414C000920FFF7EBFDFB7D0133FB75FA7DFB7A54
:10415C009A42F0D303210120FFF7E0FDFF23FB750A
:10416C000520FFF703FE0346BB75FB7D013BFB758A
:10417C00FB7D002B04D0BB7D03F00403002BEFD0A0
:10418C002220FFF7F3FD03461A467B681A707B6802
:10419C005C1C2120FFF7EAFD0346237000BF1C378F
:1041AC00BD4690BD80B584B002AF50233B70002358
:1041BC007B703B469A1C3B4602211846FFF7A9FF31
:1041CC003A4639463B1D0093134604220C20FFF758
:1041DC0075FE00BF0837BD4680BD000080B485B0B9
:1041EC0000AF154B9B69144A43F001039361124BCA
:1041FC009B6903F00103BB60BB680F4BDB690E4A84
:10420C0043F08053D3610C4BDB6903F080537B602C
:10421C007B680A4B5B68FB60FB6823F0E063FB6028
:10422C00FB6843F00073FB60044AFB68536000BFFB
:10423C001437BD4680BC704700100240000001409E
:10424C0080B588B000AF786007F1100300221A60C7
:10425C005A609A60DA607B681B68154A934223D1D6
:10426C00144B9B69134A43F008039361114B9B69F0
:10427C0003F00803FB60FB68C0233B6112237B61E6
:10428C000323FB6107F1100319460B4800F0BCFA3D
:10429C00084BDB69074A43F40013D361054BDB6918
:1042AC0003F40013BB60BB6800BF2037BD4680BD64
:1042BC000054004000100240000C014080B588B052
:1042CC0000AF786007F1100300221A605A609A6000
:1042DC00DA607B681B681C4A934231D11B4BDB694B
:1042EC001A4A43F48043D361184BDB6903F48043CF
:1042FC00FB60FB68154B9B69144A43F00803936100
:10430C00124B9B6903F00803BB60BB684FF420435E
:10431C003B6102237B610323FB6107F11003194608
:10432C000B4800F071FA4FF480433B6100237B6132
:10433C000023BB6107F110031946054800F064FA2D
:10434C0000BF2037BD4680BD003800400010024041
:10435C00000C014080B485B000AF78607B681B68AE
:10436C00124A93420CD1124B9B69114A43F40063DD
:10437C0093610F4B9B6903F40063FB60FB6810E0D7
:10438C007B681B68B3F1804F0BD1094BDB69084A82
:10439C0043F00103D361064BDB6903F00103BB60FF
:1043AC00BB6800BF1437BD4680BC7047002C014071
:1043BC000010024080B58AB000AF786007F114039A
:1043CC0000221A605A609A60DA607B681B68284A7F
:1043DC00934219D1274B9B69264A43F004039361FE
:1043EC00244B9B6903F004033B613B694FF48073DE
:1043FC007B610223BB6102233B6207F11403194664
:10440C001D4800F001FA2FE07B681B68B3F1804F68
:10441C002AD1184B9B69174A43F008039361154B3B
:10442C009B6903F00803FB60FB684FF440637B61FE
:10443C000223BB6102233B6207F1140319460F48A8
:10444C0000F0E2F90E4B5B687B627B6A23F44073ED
:10445C007B627B6A43F0E0637B627B6A43F40073AC
:10446C007B62074A7B6A536000BF2837BD4680BD1C
:10447C00002C01400010024000080140000C0140DB
:10448C000000014080B400AF00BFFDE780B400AF76
:10449C0000BFFDE780B400AF00BFFDE780B400AF04
:1044AC0000BFFDE780B400AF00BFFDE780B400AFF4
:1044BC0000BFBD4680BC704780B400AF00BFBD4696
:1044CC0080BC704780B400AF00BFBD4680BC704755
:1044DC0080B500AF00F074F800BF80BD80B400AFB1
:1044EC0000BFBD4680BC7047FFF7F8FF0B480C4976
:1044FC000C4A002302E0D458C4500433C4188C4234
:10450C00F9D3094A094C002301E013600432A2429A
:10451C00FBD302F0E7FCFFF7E1F870470000002046
:10452C0060000020C4700008600000200C02002015
:10453C00FEE7000080B500AF084B1B68074A43F04C
:10454C0010031360032000F02BF90F2000F008F883
:10455C00FFF744FE0023184680BD00BF0020024038
:10456C0080B582B000AF7860124B1A68124B1B7882
:10457C0019464FF47A73B3FBF1F3B2FBF3F318461D
:10458C0000F035F90346002B01D001230EE07B68C7
:10459C000F2B0AD8002279684FF0FF3000F00BF98E
:1045AC00064A7B681360002300E001231846083795
:1045BC00BD4680BD540000205C0000205800002047
:1045CC0080B400AF054B1B781A46054B1B6813448F
:1045DC00034A136000BFBD4680BC70475C000020DE
:1045EC000802002080B400AF024B1B681846BD4681
:1045FC0080BC70470802002080B584B000AF7860A2
:10460C00FFF7F0FFB8607B68FB60FB68B3F1FF3F1E
:10461C0005D00A4B1B781A46FB681344FB6000BF9D
:10462C00FFF7E0FF0246BB68D31AFA689A42F7D844
:10463C0000BF00BF1037BD4680BD00BF5C0000202E
:10464C0080B485B000AF78607B6803F00703FB6033
:10465C000C4BDB68BB60BA684FF6FF031340BB60C2
:10466C00FB681A02BB68134343F0BF6343F4003387
:10467C00BB60044ABB68D36000BF1437BD4680BC26
:10468C00704700BF00ED00E080B400AF044BDB6866
:10469C001B0A03F007031846BD4680BC704700BFD9
:1046AC0000ED00E080B483B000AF03463960FB71CD
:1046BC0097F90730002B0ADB3B68DAB20C4997F903
:1046CC0007301201D2B20B4483F800230AE03B6896
:1046DC00DAB20849FB7903F00F03043B1201D2B2A2
:1046EC000B441A7600BF0C37BD4680BC704700BF28
:1046FC0000E100E000ED00E080B489B000AFF860AC
:10470C00B9607A60FB6803F00703FB61FB69C3F1D6
:10471C000703042B28BF0423BB61FB690433062B5E
:10472C0002D9FB69033B00E000237B614FF0FF32B1
:10473C00BB6902FA03F3DA43BB681A407B699A40FF
:10474C004FF0FF317B6901FA03F3D9437B680B40CF
:10475C00134318462437BD4680BC704780B582B0E1
:10476C0000AF78607B68013BB3F1807F01D30123FC
:10477C000FE00A4A7B68013B53600F214FF0FF307A
:10478C00FFF790FF054B00229A60044B07221A603A
:10479C00002318460837BD4680BD00BF10E000E07E
:1047AC0080B582B000AF78607868FFF749FF00BF32
:1047BC000837BD4680BD80B586B000AF0346B960F2
:1047CC007A60FB7300237B61FFF75EFF78617A6888
:1047DC00B9687869FFF790FF024697F90F301146D8
:1047EC001846FFF75FFF00BF1837BD4680BD80B588
:1047FC0082B000AF78607868FFF7B0FF03461846C8
:10480C000837BD4680BD000080B48BB000AF786027
:10481C00396000237B6200233B6269E101227B6AE1
:10482C0002FA03F3FB613B681B68FA691340BB6136
:10483C00BA69FB699A4240F058813B685B689A4AB6
:10484C0093425ED0984A934275D8984A934258D076
:10485C00964A93426FD8964A934252D0944A9342C6
:10486C0069D8944A93424CD0924A934263D8924A64
:10487C00934246D0904A93425DD8122B2AD8122BE1
:10488C0059D801A252F823F00F490008E948000852
:10489C00FB4800083D49000843490008434900080B
:1048AC0043490008434900084349000843490008AC
:1048BC00434900084349000843490008434900089C
:1048CC00434900084349000843490008F1480008DF
:1048DC0005490008794A934213D02CE03B68DB6809
:1048EC003B6229E03B68DB6804333B6224E03B68B5
:1048FC00DB6808333B621FE03B68DB680C333B62D0
:10490C001AE03B689B68002B02D104233B6213E046
:10491C003B689B68012B05D108233B627B68FA69D5
:10492C001A6109E008233B627B68FA695A6103E06B
:10493C0000233B6200E000BFBB69FF2B01D87B6802
:10494C0001E07B6804337B61BB69FF2B02D87B6A77
:10495C009B0002E07B6A083B9B003B617B691A6809
:10496C000F213B6901FA03F3DB431A40396A3B69B7
:10497C0001FA03F31A437B691A603B685B6803F026
:10498C008053002B00F0B1804D4B9B694C4A43F097
:10499C00010393614A4B9B6903F00103BB60BB6845
:1049AC00484A7B6A9B08023352F82330FB607B6ACF
:1049BC0003F003039B000F2202FA03F3DB43FA68B4
:1049CC001340FB607B68404A934213D07B683F4A9C
:1049DC0093420DD07B683E4A934207D07B683D4A98
:1049EC00934201D1032306E0042304E0022302E0F6
:1049FC00012300E000237A6A02F003029200934044
:104A0C00FA681343FB602F497B6A9B080233FA68F0
:104A1C0041F823203B685B6803F48013002B06D01D
:104A2C002D4B9A682C49BB6913438B6006E02A4BCB
:104A3C009A68BB69DB43284913408B603B685B6811
:104A4C0003F40013002B06D0234BDA682249BB6910
:104A5C001343CB6006E0204BDA68BB69DB431E498D
:104A6C001340CB603B685B6803F40033002B06D02B
:104A7C00194B5A681849BB6913434B6006E0164B37
:104A8C005A68BB69DB43144913404B603B685B6855
:104A9C0003F48033002B21D00F4B1A680E49BB69ED
:104AAC0013430B6021E000BF0000321000003110F6
:104ABC000000221000002110000012100000111044
:104ACC00001002400000014000080140000C0140B1
:104ADC000010014000140140000401400B4B1A6807
:104AEC00BB69DB43094913400B607B6A01337B6272
:104AFC003B681A687B6A22FA03F3002B7FF48EAEB4
:104B0C0000BF00BF2C37BD4680BC7047000401407D
:104B1C0080B485B000AF78600B467B807B689A6868
:104B2C007B881340002B02D00123FB7301E0002390
:104B3C00FB73FB7B18461437BD4680BC704780B4B2
:104B4C0083B000AF78600B467B8013467B707B781C
:104B5C00002B03D07A887B681A6103E07B881A04E7
:104B6C007B681A6100BF0C37BD4680BC70470000E3
:104B7C0080B584B000AF78607B68002B01D1012335
:104B8C002BE17B6893F83D30DBB2002B06D17B68C0
:104B9C00002283F83C207868FFF752FB7B682422C4
:104BAC0083F83D207B681B681A687B681B6822F0C1
:104BBC0001021A607B681B681A687B681B6842F4E8
:104BCC0000421A607B681B681A687B681B6822F4B9
:104BDC0000421A6001F032F8F8607B685B68814A29
:104BEC00934207D8FB68804A934294BF0123002369
:104BFC00DBB206E0FB687D4A934294BF012300239D
:104C0C00DBB2002B01D00123E7E0FB68784AA2FB62
:104C1C0003239B0CBB607B681B685B6823F03F0124
:104C2C007B681B68BA680A435A607B681B681B6AFE
:104C3C0023F03F017B685B686A4A934202D8BB68E9
:104C4C00013309E0BB684FF4967202FB03F3694A27
:104C5C00A2FB03239B0901337A6812680B4313628E
:104C6C007B681B68DB6923F44F4222F0FF027B68F0
:104C7C005B685C498B4219D8FB68591E7B685B6882
:104C8C005B00B1FBF3F3591C40F6FC730B40002B9B
:104C9C000AD0FB68591E7B685B685B00B1FBF3F3C1
:104CAC000133C3F30B0351E004234FE07B689B6893
:104CBC00002B11D1FB68581E7B6859680B465B00B2
:104CCC000B44B0FBF3F30133C3F30B03002B0CBF0A
:104CDC0001230023DBB212E0FB68581E7B68596885
:104CEC000B469B000B4499000B44B0FBF3F30133D0
:104CFC00C3F30B03002B0CBF01230023DBB2002BEF
:104D0C0001D0012322E07B689B68002B0ED1FB684D
:104D1C00581E7B6859680B465B000B44B0FBF3F3E1
:104D2C000133C3F30B0343F400430FE0FB68581E3D
:104D3C007B6859680B469B000B4499000B44B0FBF5
:104D4C00F3F30133C3F30B0343F44043796809686D
:104D5C001343CB617B681B681B6823F0C0017B6825
:104D6C00DA697B681B6A1A437B681B680A431A6002
:104D7C007B681B689B6823F4034323F0FF037A686A
:104D8C0011697A68D26811437A6812680B43936090
:104D9C007B681B68DB6823F0FF017B685A697B68C2
:104DAC009B691A437B681B680A43DA607B681B6843
:104DBC001A687B681B6842F001021A607B6800224B
:104DCC001A647B68202283F83D207B6800221A63DA
:104DDC007B68002283F83E20002318461037BD461E
:104DEC0080BD00BFA08601007F841E00FF083D002F
:104DFC0083DE1B43D34D621080B588B002AFF860E0
:104E0C007A601A460B467B8113463B81FFF7EAFB1F
:104E1C007861FB6893F83D30DBB2202B40F0E080EA
:104E2C007B690093192301227049F86800F064F93A
:104E3C000346002B01D00223D3E0FB6893F83C30EF
:104E4C00012B01D10223CCE0FB68012283F83C202A
:104E5C00FB681B681B6803F00103012B07D0FB6880
:104E6C001B681A68FB681B6842F001021A60FB6839
:104E7C001B681A68FB681B6822F400621A60FB68E6
:104E8C00212283F83D20FB68102283F83E20FB682A
:104E9C0000221A64FB687A685A62FB683A895A8560
:104EAC00FB685B8D9AB2FB681A85FB68504ADA6224
:104EBC0079897B693A6AF86800F09CF80346002B04
:104ECC0001D001238DE000233B61FB681B685B690B
:104EDC003B61FB681B689B693B613B6966E07A69D7
:104EEC00396AF86800F022FA0346002B0DD0FB68F3
:104EFC001B6C042B07D1FB681B681A68FB681B68CA
:104F0C0042F400721A6001236BE0FB685B6A1A784A
:104F1C00FB681B681A61FB685B6A5A1CFB685A6267
:104F2C00FB685B8D9BB2013B9AB2FB685A85FB68B0
:104F3C001B8D013B9AB2FB681A85FB681B685B6989
:104F4C0003F00403042B1BD1FB681B8D002B17D023
:104F5C00FB685B6A1A78FB681B681A61FB685B6A02
:104F6C005A1CFB685A62FB685B8D9BB2013B9AB280
:104F7C00FB685A85FB681B8D013B9AB2FB681A854E
:104F8C007A69396AF86800F019FA0346002B0DD0DB
:104F9C00FB681B6C042B07D1FB681B681A68FB6849
:104FAC001B6842F400721A6001231AE0FB681B8D27
:104FBC00002B94D1FB681B681A68FB681B6842F4D1
:104FCC0000721A60FB68202283F83D20FB680022E7
:104FDC0083F83E20FB68002283F83C20002300E08D
:104FEC00022318461837BD4680BD00BF02001000D2
:104FFC000000FFFF80B588B002AFF8607A603B60BC
:10500C000B467B81FB68DB6A7B617B69082B06D0D6
:10501C007B69012B03D07B6913F5803F08D1FB68BA
:10502C001B681A68FB681B6842F480721A600BE0FC
:10503C00FB681B6B122B07D1FB681B681A68FB689B
:10504C001B6842F480721A603B6800937B680022F4
:10505C004FF00111F86800F04FF80346002B0DD00B
:10506C00FB681B681B6803F48073B3F5807F03D166
:10507C00FB684FF400721A64032335E0FB681B696C
:10508C00B3F5804F08D17B89DBB21A46FB681B68ED
:10509C0002F0FE021A611BE07B89DB11DBB203F02C
:1050AC000603DBB263F00F03DAB2FB681B681A610C
:1050BC003B687A680E49F86800F098F80346002BB4
:1050CC0001D0012310E07B89DAB2FB681B681A61FE
:1050DC003B687A680749F86800F088F80346002BAB
:1050EC0001D0012300E0002318461837BD4680BDCF
:1050FC00080001000200010080B584B000AFF86028
:10510C00B9603B601346FB7148E03B68B3F1FF3F6D
:10511C0044D0FFF767FA0246BB69D31A3A689A4241
:10512C0002D33B68002B39D1BB681B0CDBB2012BC3
:10513C000DD1FB681B685B69DA43BB6813409BB2FB
:10514C00002B0CBF01230023DBB21A460CE0FB68DA
:10515C001B689B69DA43BB6813409BB2002B0CBFE6
:10516C0001230023DBB21A46FB799A4216D1FB6865
:10517C0000221A63FB68202283F83D20FB68002282
:10518C0083F83E20FB681B6C43F02002FB681A641A
:10519C00FB68002283F83C20012323E0BB681B0C36
:1051AC00DBB2012B0DD1FB681B685B69DA43BB6872
:1051BC0013409BB2002B0CBF01230023DBB21A4619
:1051CC000CE0FB681B689B69DA43BB6813409BB21D
:1051DC00002B0CBF01230023DBB21A46FB799A4249
:1051EC0093D0002318461037BD4680BD80B584B0DF
:1051FC0000AFF860B9607A603B6071E0FB681B68D7
:10520C005B6903F48063B3F5806F23D1FB681B6883
:10521C001A68FB681B6842F400721A60FB681B6812
:10522C006FF480625A61FB6800221A63FB682022CB
:10523C0083F83D20FB68002283F83E20FB681B6C42
:10524C0043F00402FB681A64FB68002283F83C20DC
:10525C00012367E07B68B3F1FF3F41D0FFF7C2F950
:10526C0002463B68D31A7A689A4202D37B68002BB9
:10527C0036D1BB681B0CDBB2012B0CD1FB681B6855
:10528C005B69DA43BB6813409BB2002B14BF01234C
:10529C000023DBB20BE0FB681B689B69DA43BB683D
:1052AC0013409BB2002B14BF01230023DBB2002B55
:1052BC0016D0FB6800221A63FB68202283F83D207D
:1052CC00FB68002283F83E20FB681B6C43F0200235
:1052DC00FB681A64FB68002283F83C20012321E060
:1052EC00BB681B0CDBB2012B0CD1FB681B685B6928
:1052FC00DA43BB6813409BB2002B14BF012300237D
:10530C00DBB20BE0FB681B689B69DA43BB6813409C
:10531C009BB2002B14BF01230023DBB2002B7FF4C4
:10532C006DAF002318461037BD4680BD80B584B0E4
:10533C0000AFF860B9607A6034E0F86800F086F885
:10534C000346002B01D0012334E0BB68B3F1FF3FCF
:10535C0028D0FFF747F902467B68D31ABA689A42FD
:10536C0002D3BB68002B1DD1FB681B685B6903F083
:10537C008003802B16D0FB6800221A63FB68202266
:10538C0083F83D20FB68002283F83E20FB681B6CF1
:10539C0043F02002FB681A64FB68002283F83C206F
:1053AC00012307E0FB681B685B6903F08003802B1B
:1053BC00C3D1002318461037BD4680BD80B584B0DC
:1053CC0000AFF860B9607A6034E0F86800F03EF83D
:1053DC000346002B01D0012334E0BB68B3F1FF3F3F
:1053EC0028D0FFF7FFF802467B68D31ABA689A42B6
:1053FC0002D3BB68002B1DD1FB681B685B6903F0F3
:10540C000403042B16D0FB6800221A63FB682022CD
:10541C0083F83D20FB68002283F83E20FB681B6C60
:10542C0043F02002FB681A64FB68002283F83C20DE
:10543C00012307E0FB681B685B6903F00403042B82
:10544C00C3D1002318461037BD4680BD80B483B04D
:10545C0000AF78607B681B685B6903F48063B3F50D
:10546C00806F1BD17B681B686FF480625A617B680C
:10547C0000221A637B68202283F83D207B6800227F
:10548C0083F83E207B681B6C43F004027B681A6433
:10549C007B68002283F83C20012300E0002318469F
:1054AC000C37BD4680BC704780B586B000AF7860C5
:1054BC007B68002B01D1012372E27B681B6803F02F
:1054CC000103002B00F08780924B5B6803F00C0308
:1054DC00042B0CD08F4B5B6803F00C03082B12D100
:1054EC008C4B5B6803F48033B3F5803F0BD1894B55
:1054FC001B6803F40033002B6CD07B685B68002BBB
:10550C0068D101234CE27B685B68B3F5803F06D120
:10551C00804B1B687F4A43F4803313602EE07B681A
:10552C005B68002B0CD17B4B1B687A4A23F48033CD
:10553C001360784B1B68774A23F4802313601DE0BB
:10554C007B685B68B3F5A02F0CD1724B1B68714A5A
:10555C0043F4802313606F4B1B686E4A43F4803313
:10556C0013600BE06B4B1B686A4A23F480331360A7
:10557C00684B1B68674A23F4802313607B685B6865
:10558C00002B13D0FFF72EF8386108E0FFF72AF84C
:10559C0002463B69D31A642B01D9032300E25D4B0D
:1055AC001B6803F40033002BF0D014E0FFF71AF85B
:1055BC00386108E0FFF716F802463B69D31A642BF2
:1055CC0001D90323ECE1534B1B6803F40033002B8C
:1055DC00F0D100E000BF7B681B6803F00203002BD6
:1055EC0063D04C4B5B6803F00C03002B0BD0494B86
:1055FC005B6803F00C03082B1CD1464B5B6803F46F
:10560C008033002B16D1434B1B6803F00203002B95
:10561C0005D07B681B69012B01D00123C0E13D4BF8
:10562C001B6823F0F8027B685B69DB003949134384
:10563C000B603AE07B681B69002B20D0364B0122B3
:10564C001A60FEF7CFFF386108E0FEF7CBFF024689
:10565C003B69D31A022B01D90323A1E12D4B1B6803
:10566C0003F00203002BF0D02A4B1B6823F0F80246
:10567C007B685B69DB00274913430B6015E0264B05
:10568C0000221A60FEF7AEFF386108E0FEF7AAFFB1
:10569C0002463B69D31A022B01D9032380E11D4B2F
:1056AC001B6803F00203002BF0D17B681B6803F02E
:1056BC000803002B3AD07B689B69002B19D0174B41
:1056CC0001221A60FEF78EFF386108E0FEF78AFFB0
:1056DC0002463B69D31A022B01D9032360E10D4B1F
:1056EC005B6A03F00203002BF0D0012000F0BAFA41
:1056FC001CE00A4B00221A60FEF774FF38610FE0C1
:10570C00FEF770FF02463B69D31A022B08D903231C
:10571C0046E100BF001002400000424280044242B9
:10572C00924B5B6A03F00203002BE9D17B681B6888
:10573C0003F00403002B00F0A6800023FB758B4BB9
:10574C00DB6903F08053002B0DD1884BDB69874A52
:10575C0043F08053D361854BDB6903F08053BB600E
:10576C00BB680123FB75824B1B6803F48073002B11
:10577C0018D17F4B1B687E4A43F480731360FEF78D
:10578C0031FF386108E0FEF72DFF02463B69D31A62
:10579C00642B01D9032303E1754B1B6803F480735D
:1057AC00002BF0D07B68DB68012B06D16F4B1B6A9A
:1057BC006E4A43F0010313622DE07B68DB68002B1B
:1057CC000CD16A4B1B6A694A23F001031362674BC5
:1057DC001B6A664A23F0040313621CE07B68DB68D7
:1057EC00052B0CD1614B1B6A604A43F00403136216
:1057FC005E4B1B6A5D4A43F0010313620BE05B4B8B
:10580C001B6A5A4A23F001031362584B1B6A574A0E
:10581C0023F0040313627B68DB68002B15D0FEF7C2
:10582C00E1FE38610AE0FEF7DDFE02463B69D31A61
:10583C0041F28832934201D90323B1E04B4B1B6AEE
:10584C0003F00203002BEED014E0FEF7CBFE386120
:10585C000AE0FEF7C7FE02463B69D31A41F28832D2
:10586C00934201D903239BE0404B1B6A03F00203D4
:10587C00002BEED1FB7D012B05D13C4BDB693B4A68
:10588C0023F08053D3617B68DB69002B00F08780A9
:10589C00364B5B6803F00C03082B61D07B68DB692B
:1058AC00022B46D1334B00221A60FEF79BFE386167
:1058BC0008E0FEF797FE02463B69D31A022B01D98A
:1058CC0003236DE0294B1B6803F00073002BF0D110
:1058DC007B681B6AB3F5803F08D1244B5B6823F4CB
:1058EC0000327B689B68214913434B601F4B5B68FC
:1058FC0023F474127B68196A7B685B6A0B431B493F
:10590C0013434B601B4B01221A60FEF76BFE386190
:10591C0008E0FEF767FE02463B69D31A022B01D959
:10592C0003233DE0114B1B6803F00073002BF0D0F8
:10593C0035E0104B00221A60FEF754FE386108E087
:10594C00FEF750FE02463B69D31A022B01D9032302
:10595C0026E0064B1B6803F00073002BF0D11EE011
:10596C007B68DB69012B07D1012319E00010024091
:10597C0000700040600042420B4B5B68FB60FB68B0
:10598C0003F480327B681B6A9A4206D1FB6803F4ED
:10599C0070127B685B6A9A4201D0012300E00023FD
:1059AC0018461837BD4680BD0010024080B584B043
:1059BC0000AF786039607B68002B01D10123D0E007
:1059CC006A4B1B6803F007033A689A4210D9674B7D
:1059DC001B6823F0070265493B6813430B60634B5C
:1059EC001B6803F007033A689A4201D00123B8E020
:1059FC007B681B6803F00203002B20D07B681B68BC
:105A0C0003F00403002B05D0594B5B68584A43F450
:105A1C00E06353607B681B6803F00803002B05D020
:105A2C00534B5B68524A43F460535360504B5B6872
:105A3C0023F0F0027B689B684D4913434B607B68F5
:105A4C001B6803F00103002B40D07B685B68012BC3
:105A5C0007D1474B1B6803F40033002B15D10123EE
:105A6C007FE07B685B68022B07D1414B1B6803F01E
:105A7C000073002B09D1012373E03D4B1B6803F02D
:105A8C000203002B01D101236BE0394B5B6823F03F
:105A9C0003027B685B68364913434B60FEF7A2FD3B
:105AAC00F8600AE0FEF79EFD0246FB68D31A41F24D
:105ABC008832934201D9032353E02D4B5B6803F0EA
:105ACC000C027B685B689B009A42EBD1274B1B68EE
